:020000040000FA
:1000000068020010650100006D0100006F01000032
:1000100000000000000000000000000000000000E0
:10002000000000000000000000000000710100005E
:1000300000000000000000007301000075010000D6
:1000400077010000770100007701000077010000D0
:1000500077010000770100007701000077010000C0
:1000600077010000770100007701000077010000B0
:1000700077010000770100007701000077010000A0
:100080007701000077010000770100007701000090
:100090007701000077010000770100007701000080
:1000A0007701000077010000770100007701000070
:1000B000C106000077010000770100007701000011
:1000C00000F002F800F03EF80CA030C80838241800
:1000D0002D18A246671EAB4654465D46AC4201D180
:1000E00000F030F87E460F3E0FCCB6460126334274
:1000F00000D0FB1AA246AB4633431847F80600006F
:1001000018070000103A02D378C878C1FAD852070D
:1001100001D330C830C101D504680C6070470000BD
:100120000023002400250026103A01D378C1FBD813
:10013000520700D330C100D50B6070471FB51FBDFB
:1001400010B510BD00F050FA1146FFF7F7FF00F0B0
:1001500043FB00F068FA03B4FFF7F2FF03BC00F0C2
:100160006FFA00000748804707480047FEE7FEE7B0
:10017000FEE7FEE7FEE7FEE704480549034A054BB4
:100180007047000039070000C1000000680000103F
:100190006802001068000010002203098B422CD373
:1001A000030A8B4211D300239C464EE003460B43C7
:1001B0003CD4002243088B4231D303098B421CD329
:1001C000030A8B4201D394463FE0C3098B4201D31B
:1001D000CB01C01A524183098B4201D38B01C01A53
:1001E000524143098B4201D34B01C01A52410309CA
:1001F0008B4201D30B01C01A5241C3088B4201D379
:10020000CB00C01A524183088B4201D38B00C01A25
:10021000524143088B4201D34B00C01A5241411A4C
:1002200000D201465241104670475DE0CA0F00D02F
:100230004942031000D34042534000229C46030928
:100240008B422DD3030A8B4212D3FC22890112BAAE
:10025000030A8B420CD3890192118B4208D3890186
:1002600092118B4204D389013AD0921100E089099E
:10027000C3098B4201D3CB01C01A524183098B427F
:1002800001D38B01C01A524143098B4201D34B0168
:10029000C01A524103098B4201D30B01C01A5241CB
:1002A000C3088B4201D3CB00C01A524183088B4252
:1002B00001D38B00C01A5241D9D243088B4201D3DB
:1002C0004B00C01A5241411A00D2014663465241C6
:1002D0005B10104601D34042002B00D549427047C5
:1002E00063465B1000D3404201B50020C046C046C3
:1002F00002BD70477047704770470000FFFFFFFF67
:100300000346CA02400D10B510430A1504D001245B
:10031000E4072043002A05DB0A4CA21A04D4D0408B
:10032000FF2A00DD002010BD4A00002B01D0012073
:1003300000E00020101801225205D042F2D8C81760
:10034000C04310BD1E0400001F22030C02D10F2267
:10035000000402D0030E03D004E0002001467047E1
:100360000002083A030F01D10001121F830F01D1CF
:100370008000921E002801DB4000521E1205511819
:100380004205C012411810467047C10FC90700D07E
:100390004042012292071143D6E701218907D3E7A2
:1003A000F0B58B4C0F09254689B0BD437BD01D09A4
:1003B0002646AE43FAD00E465E402740F60F3E4337
:1003C000254071D024012142FBD0FF24AD19A404A3
:1003D0002D1B039501252D05DB02DB0AC9022B43EA
:1003E000C90A29431E010901040F130F0501214306
:1003F0001701880B820391432D098C46A90B1E43DC
:100400008A039543B30B9A0396433F09BA0B9403AF
:10041000A74302962E467E430497B6464E19D71937
:100420000C460196544305977E43371B7646BF1B07
:100430003601B646BE0B361900967646BC0437190F
:10044000009C01D3641C00946400002F01D001269D
:100450003443029E049F754366467E4304967600AD
:1004600034196E0034190094029C019E1C196643D5
:10047000751BAE46069465464519059C05956C436B
:10048000594375460891691A0191049E01465143EA
:10049000A41B0491611A009C0791E10605D0610933
:1004A0000122114302E072E06EE06109089D00271D
:1004B0002C0A2D066918049D7C412A0A2D0669180C
:1004C000019D6241AC0DAD026D185441079A910D2A
:1004D000920255196141029A644658435443069B5F
:1004E000059A5A43121A131B9A0E9B015B187A4104
:1004F000010B0005C3185141220A200644195A4134
:100500009A4200D2491C01204002814203D31523A4
:100510000226F64302E014230326F6432020C51AE0
:10052000A9401746AF40DA400A4320460399D84015
:100530000914731819055118039A3843D20751400A
:10054000AC4009D00122944006D30022401C514106
:10055000002C01D1400840001E4A934212D30122D0
:1005600003989206904207DB0520400709181A48B5
:100570000143C012414004E0032040070818C10FA6
:10058000C907002009B0F0BD0020F107FAE70518FF
:100590000C464C4111486D42A04115D394181A469F
:1005A0005A410E48644290410ED301204A00400552
:1005B000824209D35A00824206D35940C90F084AE1
:1005C000C90700201143DDE700200649DAE70000F3
:1005D0000000FF07FE070000FFFFFF7F0000E0FFB5
:1005E0000000F07F0000F87F754600F025F8AE4669
:1005F000050069465346C008C000854618B020B5BE
:10060000FFF7BAFD60BC00274908B6460026C0C502
:10061000C0C5C0C5C0C5C0C5C0C5C0C5C0C5403DBA
:1006200049008D46704710B50446C046C046204676
:10063000FFF791FD10BD0000004870470400001056
:1006400001491820ABBEFEE72600020019490968DF
:10065000012212041143174A116017490968C90899
:10066000C900154A11601146096803221143124A54
:100670001160104909680122120491430D4A11606A
:1006800011460968121511430A4A116002210B4AEA
:1006900051600021D160111551610221074A403299
:1006A00051634108054AD1611146486201215160F8
:1006B000704700008080044080400440008001407A
:1006C000F8B517488069C007C00F002810D0154939
:1006D000C869FFF762FE0646134A144BFFF760FE37
:1006E0000446FFF70DFE0F49C86101200C49C8619F
:1006F0000B48806902210840022810D10949C869C5
:10070000FFF74BFE04460A4A0A4BFFF749FE06462E
:10071000FFF7F6FD0349C86102200149C861F8BD31
:1007200000800350008001409A9999999999F13F6E
:10073000CDCCCCCCCCCCEC3F08B52548806B20216F
:10074000884323498863002022490862009003E01F
:1007500000BF0098401C00900098C828F8D30120E2
:100760001C49403108604860002048600120486012
:1007700000BF184840304068C007C00F0028F8D0BC
:100780002320144988601248806B802188431049D7
:10079000886300BF0F48C068C007C00F0028F9D0A9
:1007A00003200C494031086301204863002048635E
:1007B0000120486300BF07484030406BC007C00FAE
:1007C0000028F8D0012003494031886308BD0000AB
:1007D00000820440008004407D21C9000448006874
:1007E000FFF7DAFC0446FFF731FF00BFFEE7000029
:1007F00000000010140800000000001004000000B9
:100800000401000018080000040000106402000049
:0808100020010000006CDC0275
:04000005000000C136
:00000001FF
